:020000022000DC
:1070000000000420B96D0300F96D0300FB6D03005F
:10701000FD6D0300FF6D0300016E03000000000022
:10702000000000000000000000000000356D0300BB
:10703000056E030000000000556D0300096E03009B
:107040000D7003000B6E03000B6E03000B6E03004C
:107050000B6E03000B6E03000B6E03000B6E030040
:107060000B6E03000B6E03000B6E03000B6E030030
:107070000B6E03000B6E03000B6E03000B6E030020
:107080000B6E0300856A03000B6E03000B6E03009A
:107090000B6E03000B6E0300199702000B6E0300CA
:1070A0000B6E03000B6E03000B6E03000B6E0300F0
:1070B0000B6E03000B6E03000000000000000000D8
:1070C0000B6E03000B6E03000B6E03000B6E0300D0
:1070D0000B6E03000B6E03000B6E030049AA020047
:1070E0000B6E03000B6E03000B6E0300000000002C
:1070F000000000000B6E0300000000000B6E030098
:10710000000000000000000000000000000000007F
:10711000000000000000000000000000000000006F
:10712000000000000000000000000000000000005F
:10713000000000000000000000000000000000004F
:10714000000000000000000000000000000000003F
:10715000000000000000000000000000000000002F
:10716000000000000000000000000000000000001F
:10717000000000000000000000000000000000000F
:1071800000000000000000000000000000000000FF
:1071900000000000000000000000000000000000EF
:1071A00000000000000000000000000000000000DF
:1071B00000000000000000000000000000000000CF
:1071C00000000000000000000000000000000000BF
:1071D00000000000000000000000000000000000AF
:1071E000000000000000000000000000000000009F
:1071F000000000000000000000000000000000008F
:10720000F1EE103A43F08073E1EE103A704700BFA0
:1072100010B5054C237833B9044B13B10448AFF3D0
:1072200000800123237010BD546300200000000083
:107230004425040008B5034B1BB103490348AFF3D1
:10724000008008BD000000005863002044250400B1
:10725000154B002B08BF134B9D46A3F5803A002128
:107260008B460F461348144A121A15F00BFA0F4BAF
:10727000002B00D098470E4B002B00D098470020E1
:10728000002104000D000D48002802D00C48AFF387
:10729000008015F08DF9200029000FF0E5FD15F0B4
:1072A00061F900BF00000800000004200000000099
:1072B00000000000546300209C95002000000000A6
:1072C0000000000038B5104D01210B2010F070F9BE
:1072D00000222846012102F027F805F5C864284657
:1072E0000A4902F0B7F90621204600F073F820465B
:1072F00000F058F8204600F027F820460021BDE8AD
:10730000384000F0EFB800BF84630020C8F90300E4
:1073100008B501210B2010F0CFF964200DF0A2FA7E
:107320000B20002110F0C8F9BDE8084064200DF0E2
:1073300099BA00BF72DF704773DF704777DF70471D
:107340000022C27702707047F0B589B0064620224D
:107350001348694602F092F9F37FC2181D2A0CDD2A
:10736000C3F11D04E4B2E2181D2A4FF00005D8BF96
:10737000082705DD284609B0F0BD04460125092788
:10738000F218601CF05469465770901C224615F0A4
:1073900051F9F27F023214442846F47709B0F0BD67
:1073A0008463002010B50446094802F07BF9E37FAE
:1073B0001C2B01DD002010BDE2180221E1540A233C
:1073C00090705370E37F0333E377012010BD00BF5B
:1073D00084630020C27F1C2A01DD0020704710B4A6
:1073E00003469C18022098540120A1706070DA7F37
:1073F0000332DA775DF8044B704700BF10B4084AD7
:10740000084C094902620022C0E90A41C0E90C2285
:107410005DF8044B0270C27742628263704700BF1E
:10742000FF0101002000F40020001E00F0B5154609
:1074300005EB8503274A89B0044603EB830300204C
:107440000E469B0011680290CDE90460ADF814303F
:1074500094F821308DF80830CB07CDE90600039071
:1074600009D41D491D4BC87FE77F988101201C600E
:1074700099609F801060194902AA04F12000FFF76B
:1074800059FF10B1002009B0F0BD94F82010144845
:10749000019102F007F9019902460120FFF74EFF22
:1074A0000028EFD194F820000121FFF745FF0028C4
:1074B000E8D10B4802F040F9628EA68595424FF064
:1074C000010094BF521B921A628684F8230009B00F
:1074D000F0BD00BF70630020006A002074630020CC
:1074E00084630020F0B5002361F30F032D4D0446A3
:1074F00061F31F4389B00363FA21284602F0D6F8EE
:10750000E68D2949278D0868049706EB860303EB6F
:10751000830300229B000592ADF8143094F82130CB
:1075200002928DF80830C307CDE9062203920BD4EE
:107530001E4BE27F95F89B069A8005F27C6501223E
:107540001C609D6098810A60184902AA04F120001D
:10755000FFF7F0FE10B1002009B0F0BD94F8201044
:107560001048019102F09EF8019902460120FFF7B0
:10757000E5FE0028EFD194F820000121FFF7DCFEA2
:107580000028E8D1074802F0D7F8638EA7859E420D
:107590004FF0010094BF9B1BDB1A638684F8230025
:1075A00009B0F0BD84630020706300207463002084
:1075B00030B50B888D88112B85B0044605D0262B5D
:1075C00033D0102B25D005B030BD436AEB40DB072C
:1075D000F9D52E4800F042FD0028F4D1636A94F8F2
:1075E0002310012202FA05F523EA0503636200294C
:1075F000E9D194F82230002BE5D0238E234863860E
:10760000FA2102F053F8E28D218D2046FFF70EFF9C
:10761000D9E7CB7B012BD6D1426A03FA05F5154396
:107620000023456280F82330CDE70B7A012BCAD1C5
:10763000002380F823304FF4FA71144802F036F832
:10764000238E5BB1658E95B1A36B0BB19847658EA8
:10765000618D2A462046FFF7E9FEB4E7A36B03B12C
:107660009847618D00222046FFF7E0FEABE7074810
:1076700002F076F8626B002AA5D0009503AB29468C
:10768000284603950FF0D0FE9DE700BF84630020DD
:1076900075DF704710B44FF010144FF4480100220A
:1076A000C0E90041C0E902225DF8044B704700BF09
:1076B000014800F0F9BA00BF746A0020F8B500254F
:1076C0000D4F2E4601E0142D14D0A9B2384602F019
:1076D0001BF8013504460028F5D000F0A9F9002870
:1076E000F1D0204600F0AEF9022804BF0136F6B210
:1076F000142DEAD13046F8BD8463002070B58E8821
:107700001B480C4694B0314601F0FEFF23881A2B2B
:1077100005D01F2B1CD0102B0FD014B070BD054608
:1077200000F088F90028F8D0284600F085F90028F4
:10773000F3D1284600F0D0F9EFE7694600F0B4F93C
:107740000028EAD06A4631460A4801F01BF8E4E70F
:1077500054F8080F61686B4603C33046BDF800302B
:10776000ADF802306946FFF793FF14B070BD00BF5B
:1077700084630020A463002051F8322F026049681E
:1077800041607047A1DF7047A3DF7047A4DF7047F7
:1077900000238383704700BF006A00F0E3B800BF96
:1077A000808B70472DE9F0410B88CE88382B86B04E
:1077B0000C46054606D0392B66D0362B43D006B092
:1077C000BDE8F08100F12407002E36D10A8A384640
:1077D000314602F059F894F80C80B8F1010F2CD022
:1077E000B8F1040FEBD1286A00F0BCF801465C4800
:1077F00001F08AFF00F028F92A8E053883B29342FF
:1078000028BF1346002B00F09A80218AE289286A5B
:10781000AC8B8DF80D600A44E96A05918DF80C80F7
:10782000ADF81230ADF81020ADF80E4000F09AF827
:1078300003A9FFF7A9FF0028C1D0384602F03CF8A1
:1078400006B0BDE8F081006A00F08CF801464448BB
:1078500001F05AFF00F0F8F807466EBB05F1240668
:10786000E289304604F1100102F00EF82B8E2BB1A4
:10787000F81EE38980B20138834255DA304602F0BF
:107880001BF806B0BDE8F0810B7B012B1AD0022B50
:1078900095D1836B002B92D090F83C208F88920773
:1078A0001FD401F11006E2893146284698476189C4
:1078B0003846FFF76BFF82E705F12407384601F0F1
:1078C000FBFFBDE7436B002B3FF479AF90F83C2002
:1078D000D10717D404F11006E289314628469847AB
:1078E0006DE7C989039004F1100603201A46009041
:1078F00003AB3046CDE904610FF096FD0028D6D1E8
:10790000AB6BD0E7E189039004F1100603201A461F
:10791000009003AB3046CDE904610FF085FD0028EF
:107920007FF44DAF6B6BD7E7286A00F01BF86A8EC7
:10793000A98B92B2FFF726FF00289FD13FE7AA8BC1
:10794000286AADF80E2040F20511ADF80C10CDE913
:10795000043300F007F803A9FFF716FF6DE700BF37
:1079600084630020808870478FDF704790DF704706
:10797000B1DF7047B5DF704710B5074B03600446B1
:10798000806A0DF0EDFDE06A0DF0EAFD206B08B1B4
:107990000DF0E6FD204610BDE0F9030010B5094BDF
:1079A00003600446806A0DF0DBFDE06A0DF0D8FD4F
:1079B000206B08B10DF0D4FD20460FF097FA204659
:1079C00010BD00BFE0F9030070B504460D4692E813
:1079D0000300A5800E0CA061A183144DA67717208B
:1079E0001B2156892560E0809589D089E181D17974
:1079F0006581012222752274A0816174184619469E
:107A000026819DF810500DF00DF82946A0622846F9
:107A10000DF008F84FF4885100234FF6FF72E18211
:107A2000E062628223636375204670BDE0F9030063
:107A3000007D7047407D7047C07D113818BF012020
:107A4000704700BF407C7047C0887047008970470E
:107A50004B7D10B44BB11F310C688A888B79046060
:107A600082805DF8044B837170471831F4E700BFE2
:107A7000818800F11F02407C01F064BF38B50A46DE
:107A800005460C468188407C01F048FF21460120D4
:107A900051F8483FC5F81F308B888A7985F8252032
:107AA000A5F82330687538BD38B50A4604460D463A
:107AB00000F11801407C01F07BFF607550B1294650
:107AC00051F8483FC4F81F308B888A7984F8252004
:107AD000A4F8233038BD00BF10B5447D24B100F1B7
:107AE0001F01407C01F042FF204610BD70B50B889D
:107AF000113B82B00C460546462B2BD8DFE803F03D
:107B0000383B2A2A2A2A2A2A2A422A2A2A2A2A2A9E
:107B100050585E642A2A2A2A2A2A2A2A2A2A2A2A03
:107B20002A2A2A2A2A2A2A2A2A672A942A2A2A2A0E
:107B30002A2A2A2A2A2A2A2A2A2A2A2A2A2A2A2AA5
:107B40002A246A2A752C84000023A8881A4619461C
:107B5000FFF70EFF02B070BD8B79002BFAD1006BDE
:107B6000AB750028F6D01A4619460CF08DFFF1E7E8
:107B700000230375EEE74B8903818B894381CB8911
:107B80008381E7E70B7AC375112BE3D0818800F17D
:107B90001F02407C01F0C4FF03460028DAD1D4E77D
:107BA000002301A98088ADF80430FFF7DDFED1E79E
:107BB0000B7A002BCED14B7A0374CBE7002211460F
:107BC0008088FFF7D3FEC5E70B89C381C2E74B89E5
:107BD000C380BFE7006B0123AB750028BAD0002338
:107BE0001A4619460CF050FFB4E7417C164801F0E4
:107BF00083FDE3880146994228BF194689B2A888C7
:107C0000E980FFF7B7FEA5E78B79002BA2D000260D
:107C100000231A461946A86A0CF036FF0136A279ED
:107C2000F3B29A42F4D895E78B7A002B92D00026D3
:107C300000231A461946E86A0CF026FF0136A27A9C
:107C4000F3B29A42F4D885E78463002070B58AB015
:107C500086880B4606A84FF42851144605934FF624
:107C6000FF7501F0F7F80120CDE90105059B0094AF
:107C7000314606AA044800F06FF8044606A801F051
:107C8000E1F820460AB070BDC467002010B5044674
:107C9000043001F095FD034B23600023237520463B
:107CA00010BD00BF0100FFFF017D01B1704710B59D
:107CB0000446043001F08EFD0123237510BD00BF82
:107CC000007D70470B88322B10B504D0332B17D0B2
:107CD000302B08D010BDCB88DBB1041D2046BDE899
:107CE000104001F0E9BDCB88041D002BF6D14B8973
:107CF000002BF3D00A3120460A2201F0C5FDEDE742
:107D0000CB88002BE9D14A89002AE6D002EB420257
:107D100004E04A89002AE0D002EB82025200041DEE
:107D2000023292B20A31204601F0AEFDD6E700BF22
:107D3000A0DF704710B5044600F5F87001F040FD73
:107D40002046F822002114F09DFCF822A018002102
:107D500014F098FC204610BD2DE9F04782B005468E
:107D6000BDF82C60BDF830402048ADF80460BDF887
:107D700028A0ADF80640904699460F4601F0C4FC95
:107D800005F5F875064603E0FFF760FE0CF06AFDA6
:107D9000284601F077FD04463046002CF4D101213D
:107DA000284601F017FD52464946284601F02EFDAF
:107DB00008F10401384601AAFFF7BAFF30B128469E
:107DC00001F012FD204602B0BDE8F0874FF4FA71D1
:107DD000284601F021FD20EAE074284601F004FD68
:107DE000A4B2204602B0BDE8F08700BF8463002043
:107DF0002DE9F04F8F880D8885B0884604463946B6
:107E0000864801F081FCA5F11003012B814640F268
:107E1000908094F854203AB3002633461633502D00
:107E200054F823A069D0512D1AD198F80630B8F82B
:107E300008B0022B53D0BBF1000F11D05146684659
:107E4000FFF79AFCBDF800305B4559D0514602A8B7
:107E5000FFF792FCBDF80C305B4551D094F85420EC
:107E60000136F3B29342D9D394F84C31002B00F091
:107E7000D18004F5A679002604E094F84C3101364F
:107E8000B34220DD59F8040FFFF786FCB842F4D165
:107E9000382D03D0392D01D0362DEED1B8F80AA0F7
:107EA000BAF1000FE9D0D9F800B05846FFF778FCD6
:107EB0005045E2D158464146FFF774FC94F84C31E6
:107EC0000136B342DEDC112D55D0352D04D1B8F882
:107ED0000A30002B40F08F8005B0BDE8F08F98F895
:107EE0000E30062BA7D1DAF800305046DB68414649
:107EF00098474846FFF7A0FDB0E7B8F806B09AE704
:107F0000DAF800305046DB68414698474846FFF7AC
:107F100093FD0028A2D0502DA0D1514602A8FFF712
:107F20002BFCBDF80C305B4598D14846FFF7A0FD0F
:107F300094E72378002B3FF46CAF0026112D3346D5
:107F40000CD004EB83033946586803685B68984794
:107F500001362278F3B29A42F3D85AE704EB83034E
:107F60003946586803681B68984701362278F3B28F
:107F70009A42F3D84DE7D3B10026334605E094F892
:107F80004C210136F3B29A4211D904EB8305D5F89E
:107F90005001FFF701FCB842F1D1D5F85001FFF7CD
:107FA000F7FB013694F84C21F3B29A42EDD894F8DD
:107FB000F820002A90D000252B4604EB8303D3F849
:107FC000FC008388BB420AD00135EBB2934283D2D6
:107FD00004EB8303D3F8FC008388BB42F4D103682D
:107FE0001B689847013594F8F820EBB29342E4D32C
:107FF00005B0BDE8F08F04F5F874B8F80C20204601
:1080000008F1100101F040FC204605B0BDE8F04F3A
:1080100001F052BC112D7FF458AFC8E784630020F3
:1080200078DF70477ADF7047054A034692E803001D
:10803000002283E80300C3E902221846704700BF0C
:10804000E8F9030008B5FFF7EDFF08B1002008BD0F
:10805000FFF7E6FFB0FA80F0400908BDF8B500254B
:108060000D4F2E4601E0142D14D0A9B2384601F070
:108070004BFB013504460028F5D0FFF7D9FC00285A
:10808000F1D02046FFF7DEFC012804BF0136F6B22E
:10809000142DEAD13046F8BD84630020704700BF3C
:1080A0008ADF704730B40D4CC4621F250022502473
:1080B0008584A025C0E91122C0E90F22A0F846500E
:1080C000A0F84840006230BC8262028680F8382006
:1080D0004263C264A0F85020704700BF00018000D6
:1080E0002DE9F04F10468DB016460C4600F0C0FE4C
:1080F000C5B2102D4FD0B66807220623A16994F8A7
:108100001C9001918DF80D208DF80C30ED080DF1CB
:108110000C080DF10E0A0027B9F1010F0A97CDE9FD
:108120000477CDE90677CDE90877CDF82B700ED925
:1081300098F8000001994B464A7882420FD00A789D
:10814000D4432344013213F0FF031144F4D108F166
:108150000108C245E0D100200DB0BDE8F08F11F854
:10816000024B013CE4B2224604A814F063FA0DF17C
:10817000100B1CB9EBE714F0FF04E8D058462A4670
:10818000314614F049FA641BAB440028F3D10120B6
:108190000DB0BDE8F08F043603220223AEE700BF26
:1081A0002DE9F0430B888E88103B87B00D460446BE
:1081B0000D2B2CD8DFE803F077072B2B2B2B2B2B49
:1081C0002B2B2B842B2E836AF340DB071FD55648BD
:1081D000FFF774FAD8B9A36A94F82C20012505FAA0
:1081E00006F623EA0606A6628AB994F82D3073B122
:1081F0001F232462A38404F1200104F14400FFF74B
:108200004FFF20B9494801F097FA84F82C5007B085
:10821000BDE8F08390F92E2091F91B309A423ADCA8
:1082200090F8383001F108080BB3DFF8049100260C
:1082300002E0D6B2B34218D9636BCDF8089003EBD5
:10824000061302AA59680391D3E9027341462046F6
:1082500005930497FFF744FF074602A800F0F2FDDC
:1082600094F83830721C002FE3D09E4213D094F85B
:108270002F30002B49D095F82430012B0BD9296AD7
:108280004A78FF2A30D00A78D0430344013213F0F1
:10829000FF031144F4D104F120010020FFF700FF97
:1082A00007B0BDE8F083CB7B022BB0D1836A0122FB
:1082B00002FA06F633430022836280F82C20A6E7F8
:1082C0000B7A012BA3D1002580F82C50174801F020
:1082D00047FA226C002A9AD0009502AB294628461C
:1082E00002950FF0A1F892E711F8025B6A1ED2B274
:1082F000022A28BF022202A814F09CF9012DCAD03C
:10830000228EBDF808309A42C5D1E26B002A3FF4B4
:108310007EAF01230093404602AB2421CDF80880B4
:108320000FF082F873E700BF94630020846300209D
:10833000F8F9030046DF70477FDF704780DF704742
:1083400081DF704785DF704786DF704738B51C4690
:108350000D460346114628462246984734B1014649
:1083600000222846BDE83840FFF7E8BF38BD00BF0F
:1083700010B50C4682B003466946204698476A46C7
:1083800020460121FFF7DAFF02B010BD10B5044608
:10839000083001F0EFFD074B236003220023227118
:1083A000C4F81034C4F81434C4F81834C4F81C34B5
:1083B000204610BD3507100330B50446ADF55F7D8E
:1083C00000F108058F4801F069FD0821284601F0F9
:1083D000D5FD684601F0DCFD6846082101F0DCFDB2
:1083E0006946284601F07AFD04F54F71412268463E
:1083F00001F0E0FD684601F0D9FD94F85C0394F8C3
:108400005B2394F83D1394F83E3384F83D0384F8DD
:108410003E2394F85A0394F8592394F83F5384F870
:108420005C1384F85B3394F8401394F8413384F878
:108430003F0384F8402394F8580394F8572384F8B2
:108440005A5384F8591394F8425394F8431384F818
:10845000410384F8583394F8560394F8443384F86D
:10846000422394F8552384F8575384F8430384F83F
:10847000442384F8553384F8561394F8451394F83C
:10848000540394F8532394F8463384F8450384F84E
:10849000462394F8520394F8512394F8475384F8F0
:1084A000541384F8533394F8481394F8493384F8F8
:1084B000470384F8482394F8500394F84F2384F832
:1084C000525384F8511394F84A5394F84B1384F898
:1084D000490384F8503394F84E0394F84C3384F8ED
:1084E0004A2394F84D2384F84F5384F84B0384F8BF
:1084F0004C2384F84D3384F84E1394F85D1394F8AC
:108500007C0394F87B2394F85E3384F85D0384F84D
:108510005E2394F87A0394F8792394F85F5384F8EF
:108520007C1384F87B3394F8601394F8613384F8F7
:108530005F0384F8602394F8780394F8772384F831
:108540007A5384F8791394F8625394F8631384F897
:10855000610384F8783394F8760394F8643384F8EC
:10856000622394F8752384F8775384F8630384F8BE
:10857000642384F8753384F8761394F8651394F8BB
:10858000740394F8732394F8663384F8650384F8CD
:10859000662394F8720394F8712394F8675384F86F
:1085A000741384F8733394F8681394F8693384F877
:1085B000670384F8682394F8700394F86F2384F8B1
:1085C000725384F8711394F86A5394F86B1384F817
:1085D000690384F8703394F86E0394F86C3384F86C
:1085E0006A2394F86D2384F86B03012084F86F5399
:1085F00084F86E1384F86C2384F86D330DF55F7D79
:1086000030BD00BF106B00200B7803F0FE03042B7D
:1086100001D00020704770B515468CB00C46202262
:10862000002104A814F02EF828686968AA68EB688D
:108630006D460FC59DF800109DF80F209DF8016054
:108640009DF80E509DF802008DF80F1023469DF8FE
:108650000D108DF800209DF803208DF80E608DF828
:1086600001509DF80C609DF804508DF80D008DF8B8
:1086700002109DF80B009DF805108DF80C209DF858
:108680000A208DF803608DF80B508DF804008DF8EA
:1086900005208DF80A109DF8061033F8042FADF868
:1086A00010209B789DF809209DF81D009DF8106012
:1086B0009DF81F508DF809108DF806209DF81110B7
:1086C0009DF81E208DF81D309DF807308DF81200A2
:1086D0008DF81F609DF808009DF813608DF810500C
:1086E0008DF81E109DF81C509DF814108DF8112067
:1086F0008DF808309DF81B209DF81A308DF8070082
:108700008DF81C608DF813509DF815608DF81B10C6
:108710008DF8142068468DF815309DF819109DF8D5
:1087200017209DF818309DF816508DF818208DF8F8
:1087300016108DF817308DF81A608DF81950FFF764
:10874000F9FD62789DF82F309DF82E009DF82D10D0
:108750008DF821009A428DF8221004F1010404D012
:10876000012080F001000CB070BD6278C3B29A4263
:1087700004F10104F4D16278CBB29A42F0D1002026
:10878000EFE700BF08B5137CDB0758BF1C32084673
:1087900002F11201FFF7D6FDB0FA80F0400908BDE2
:1087A000F0B58F880E46ADF56B7D044639464648D8
:1087B00000F0AAFF3388133B0546072B2FD8DFE8CC
:1087C00013F03E005F006D002E00280387000800B4
:1087D0003100337AB3B9737B9B070ED4294602A8C4
:1087E000FFF736F90299BDF80C209DF80E3084F899
:1087F0000C34C4F80614A4F80A24284604F2BE3146
:10880000FFF73CF9D4F818244AB1307A0D900223CE
:108810000021009308460CAB0C970EF005FE0DF5F9
:108820006B7DF0BDD4F81C24002AF8D00123002170
:10883000009308460CAB0C970EF0F6FDEFE704F240
:10884000BE3304F2DA320C9304F2F63300251092B0
:10885000119304F23D3204F27E330F921393CDE96B
:108860000D551295FFF7EEF801280CBF22462A4657
:108870000CAB29463846FFF75FFD0DF56B7DF0BD6B
:108880000CA9FFF711F90346002800F0D2820CA9C9
:10889000384600231AAAFFF757FDC0E7D4F8101492
:1088A0000029BCD0B37B094A03F001030F930423D2
:1088B000CDE90C1706F10800009306210CAB0E90D1
:1088C0000EF0B2FDABE700BF846300204D830200D1
:1088D00094F87E3394F89D2394F87FC394F89C63B6
:1088E00094F8805394F89B0384F89D33042194F802
:1088F0009A3384F87D1384F87E2394F8811394F8D6
:10890000822384F89CC384F87F6394F899C394F815
:10891000836384F89B5384F8800394F8985394F805
:10892000840384F89A1384F8813394F8971394F8A5
:10893000853384F8992394F8962384F882C384F8C5
:10894000986384F8835384F8970384F8841384F835
:10895000852384F8963394F8862394F8953394F815
:1089600087C394F8946394F8885394F8930394F825
:10897000891384F8952384F8863394F8922394F825
:108980008A3384F894C384F8876394F891C394F885
:108990008B6384F8935384F8880394F8905394F885
:1089A0008C0384F8921384F8892394F88F1394F835
:1089B0008D2384F8913394F88E3384F88AC384F835
:1089C000906384F88B5384F88F0384F88C1384F8B5
:1089D0008D3384F88E2394F89E2394F8BD3394F855
:1089E0009FC394F8BC6394F8A05394F8BB0394F825
:1089F000A11384F8BD2384F89E3394F8BA2394F825
:108A0000A23384F8BCC384F89F6394F8B9C394F884
:108A1000A36384F8BB5384F8A00394F8B85394F884
:108A2000A40384F8BA1384F8A12394F8B71394F834
:108A3000A52384F8B93394F8B63384F8A2C384F834
:108A4000B86384F8A35384F8A41384F8B62384F895
:108A5000A53384F8B70394F8A60394F8B51394F8F3
:108A6000A72394F8B43394F8A86394F8B35384F824
:108A7000B50384F8A61394F8A90394F8B21384F804
:108A8000B42384F8A73394F8AA2394F8B13384F874
:108A9000B36384F8A85394F8AB6394F8B05384F8A4
:108AA000B20384F8A91394F8AC0394F8AF1384F8D4
:108AB000B12384F8AA3394F8AD2394F8AE3384F844
:108AC000AD3384F8AE2384F8B06384F8AB5384F8F4
:108AD000AF0384F8AC130CA801F05AFA0CA80821D3
:108AE00001F05AFA04F27D310CA8412201F074FA27
:108AF0000CA904AA202304F1080001F01DFA0CA817
:108B000001F054FA9DF810109DF82F009DF81130D7
:108B10009DF82E209DF812609DF82D508DF81000C4
:108B20008DF82F109DF813009DF82C108DF8112052
:108B30008DF82E309DF814209DF82B308DF81250B2
:108B40008DF82D609DF815509DF82A608DF8131052
:108B50008DF82C009DF816109DF829008DF8143022
:108B60008DF82B209DF817309DF828208DF8156082
:108B70008DF82A508DF816008DF817208DF82830C2
:108B80008DF829109DF818109DF827009DF81930D0
:108B90009DF826209DF81A609DF825508DF8180044
:108BA0008DF827109DF81B009DF824108DF81920D2
:108BB0008DF826309DF81C209DF823308DF81A5032
:108BC0008DF825609DF81D509DF822608DF81B10D2
:108BD0008DF824009DF81E109DF821008DF81C30A2
:108BE0008DF823209DF81F309DF820208DF81D6002
:108BF0008DF822508DF821108DF81F208DF820302F
:108C00008DF81E0094F87E0394F89D1394F87F234A
:108C100094F89C3394F8806394F89B5384F89D03F4
:108C200084F87E1394F8810394F89A1384F89C23B3
:108C300084F87F3394F8822394F8993384F89B6303
:108C400084F8805394F8836394F8985384F89A03D3
:108C500084F8811394F8840394F8971384F8992383
:108C600084F8823394F8852394F8963384F89863D3
:108C700084F8835384F8841384F8962384F8853326
:108C800084F8970394F8860394F8951394F887234F
:108C900094F8943394F8886394F8935384F8950384
:108CA00084F8861394F8890394F8921384F8942333
:108CB00084F8873394F88A2394F8913384F8936383
:108CC00084F8885394F88B6394F8905384F8920353
:108CD00084F8891394F88C0394F88F1384F8912303
:108CE00084F88A3394F88D2394F88E3384F8906353
:108CF00084F88B5384F88C1384F88E2384F88D3396
:108D000084F88F0394F89E0394F8BD1394F89F237E
:108D100094F8BC3394F8A06394F8BB5384F8BD0373
:108D200084F89E1394F8A10394F8BA1384F8BC2332
:108D300084F89F3394F8A22394F8B93384F8BB6382
:108D400084F8A05394F8A36394F8B85384F8BA0352
:108D500084F8A11394F8A40394F8B71384F8B92302
:108D600084F8A23394F8A52394F8B63384F8B86352
:108D700084F8B70384F8A41384F8B62384F8A533E1
:108D800084F8A35394F8A65394F8A72394F8B43323
:108D900094F8B50394F8A81394F8B36384F8B55322
:108DA00084F8B42394F8A95394F8AA2384F8A73339
:108DB00094F8B13394F8B0C384F8A60384F8B313DD
:108DC00094F8B20394F8AB1384F8A86384F8B25310
:108DD00094F8AC6394F8AF5384F8B12384F8AA33C1
:108DE00094F8AD2394F8AE3384F8A90384F8B01353
:108DF000384604A984F8ABC384F8AF6384F8AC5355
:108E000084F8AE2384F8AD33FFF79AFA0DF56B7D45
:108E1000F0BDD4F81424002A3FF401AD0223002150
:108E200000930C920CAB064A0D9708460EF0FCFA24
:108E3000F5E438461A461946FFF786FAEFE400BF14
:108E400071830200704700BF10B504460EF04EF863
:108E5000204610BD10B4054C818000220121046021
:108E6000C0E902225DF8044B81717047F8F90300F4
:108E70008379012B0AD0826832B9C26822B9012BEA
:108E80008CBF8020002070478020704710207047E2
:108E90004DDF70474EDF70474FDF704750DF704740
:108EA0004BDF704710DF70477CDF70477DDF704716
:108EB00060DF704769DF704761DF704766DF7047CA
:108EC00067DF7047704700BF0C200EF013BC00BF77
:108ED00030B5224C224D83B0D4F828074FF0FF3133
:108EE0000CF0C2F90028F7D0C5B101A8FFF7D8FFF0
:108EF0000528F1D00028F8D1019B032B1BD8012BAA
:108F0000F3D918460BF014FCEFE70A2B04D0092B19
:108F100021D00B2B02D1012005F0E2FA01A8FFF7C6
:108F2000BFFF0528D8D00028F8D1019BA3F1090282
:108F3000022AF3D8E9E7A3F10902022AD5D80A2BBD
:108F400004D0092B05D00B2BCFD1012005F0C8FA96
:108F5000CBE70220FAE70220DEE700BF84630020AF
:108F6000314703002DE9F04F2DED028B4FF4FA70DD
:108F700089B00BF093FCB24E00F1080308EE103AF2
:108F8000054606F5F06706F5C86AD6F824074FF0DF
:108F9000FF310CF069F90028F7D04FF4FA730DF1A6
:108FA00016012846ADF81630FFF786FF10B10528E8
:108FB000F3D1EAE7B5F80490B9F1130F00F2398163
:108FC00006EB8903D3F834473CB129462046FEF727
:108FD0008DFD9C482946FFF7E3FB2B88013B1B2BAB
:108FE0005AD8DFE813F0160159005900590059000A
:108FF00059005900590059005900590059005900A9
:1090000059005900B4001C0059005900590059007A
:10901000590059005900590059005900A200DFF8C1
:1090200038824FF0000B58F8040F30B1FEF700FD06
:1090300018B10BF1010B5FFA8BFBB845F3D1BBF113
:10904000000F06D196F830371BB159460C200EF0B0
:1090500033FB2046FEF7F6FC012800F0EC80F269B5
:1090600062B10223002195F808C00093084606ABC0
:10907000CDF81890CDF81CC00EF0D6F909F5E678B9
:1090800006EB8803586810B103685B68984706EBE5
:1090900088080023C8F8043029465046FEF788FAAD
:1090A00069482946FFF77CF8B6F832374B452B88DC
:1090B00000F0B480102B1ED02CB32046FEF7C2FC6B
:1090C000012803D15E482946FEF7E8FF2046FEF757
:1090D000B9FC02281BD05D48FEF7F2FD00BB5C48DE
:1090E0002946FEF785FED6F88837002B3FF455AFAA
:1090F0002846984751E7EB7B012BDDD1AB88A6F8DA
:109100003237002CD9D14E482946FEF7C7FF5148C7
:109110002946FEF7F3FA4D48FEF7D2FD0028DED0CF
:109120004A482946FEF7CEFDD9E7D6F88427002A1B
:10913000B2D00223002195F908C00093084606AB7F
:10914000CDF81890CDF81CC00EF06EF9A4E74FF0E2
:109150000008D6F82C07CDF800804346424603218C
:109160003D4C0DF0FBFB54F8040F30B1FEF760FCF2
:1091700018B108F101085FFA88F8BC42F3D196F8FB
:1091800030376BB1B8F1000118BF01210C200EF08F
:1091900093FA96F830371BB101210C200EF08CFAAF
:1091A00009F5E67806EB8804606820B103685B681F
:1091B000984700236360EB7B012B0BBF96F81237B7
:1091C00096F8183796F8134796F819470393342002
:1091D0000DF08AFE06EB8808039B009418EE102A17
:1091E00004464946FEF7F0FB2046C8F80440FEF767
:1091F00029FC012832D0B269002A3FF44DAF012387
:1092000000210093084606ABCDF818900EF00CF93B
:1092100042E700214846FFF751FE3DE7102B3FF49F
:109220006AAF112B7FF448AF4FF6FF73A6F83237C1
:1092300042E70446D1E6F268002A7FF412AF1DE748
:1092400084630020A4630020206A0020746A002048
:10925000C467002094630020B46A0020B268002A2A
:109260003FF41AAF0021009006AB0846CDF81890E5
:109270000EF0DAF810E700BF38B50446FEF7D4FE6A
:1092800004F11000FEF706FA04F12000FFF77EF863
:1092900004F58860FEF74EFD04F5C860FEF7AEF8F1
:1092A00004F27C60FEF74CF804F29C60FEF7FAFED4
:1092B00004F5DE60FEF7EAFC4FF480530025C4F8A5
:1092C000083716481649174AC4F80C0740F201132C
:1092D000C4F81017C4F81427A4F81837A4F81A57BC
:1092E00004F234702946502213F0CCF901224FF6D3
:1092F000FF73A4F81C5784F81E57C4F82457C4F809
:109300002857C4F82C57C4F88857C4F8845784F8F1
:109310003027A4F83237204638BD00BF010A1700B5
:109320000300010117000300F0B5BF4E80F81C17C1
:109330008DB080F81D2704460DF054FE0DF05AFE46
:109340000DF018FE3369B949039303A8FFF7AAFD8E
:1093500018B1002528460DB0F0BD0120FFF79AFD99
:109360000120FFF795FD0120FFF796FD09A8FFF703
:1093700095FD099B9B0705D5AD4BD3F80435002B14
:1093800000F0FE800023AB4A94F80D57049209A91F
:109390000120CDE909330B938DF82450FFF78AFDA6
:1093A0000028D6D194F81D370B90CDE90900181E7E
:1093B00018BF012094F81C578DF82700049A8DF8E7
:1093C000263009A940208DF82550FFF773FD0028AD
:1093D000BFD194F80C170990034661F30003CDE95F
:1093E0000A00049A8DF8243009A9A020FFF762FD35
:1093F0000028AED1D4F808370A900B90049A09934C
:1094000009A9A120FFF756FD0028A2D194F81C3726
:10941000002B40F0B98094F81D37002B48D0002372
:10942000B4F81477049A0993022509A92320CDE9F9
:109430000A338DF82450ADF82670FFF73BFD002865
:1094400087D1CDE9090094F81D77B4F816370B9051
:10945000049A8DF8245009A920208DF82670ADF8C3
:109460002830FFF727FD00287FF473AF0990CDE97E
:109470000A0094F81837049A8DF8245009A922207C
:109480008DF82630FFF716FD00287FF462AFCDE996
:10949000090094F819370B90049A8DF8245009A903
:1094A00021208DF82630FFF705FD00287FF451AF0D
:1094B00004A8FFF7FDFC00287FF44BAFCDE90700BF
:1094C00040F0010307A902208DF81C30FFF7F8FCDB
:1094D00000287FF43EAF2046FEF7B4FD0546002885
:1094E0003FF437AF04F12000FEF766FF337D5249A9
:1094F0008DF80830132202A8FFF7D6FC00287FF46D
:1095000028AF94F81D37002B40F0888003220021FB
:1095100001200BF045FAC4F8240700283FF419AFE6
:1095200005AB0326CDE900634449454800234FF4C9
:10953000A0620CF0B3F93246002101200BF030FAA2
:10954000C4F8280700283FF404AF06ABCDE9006358
:109550003C493D480023C8220CF0A0F93B4B4FF496
:1095600080021A603A4B00930023184601224FF400
:1095700080710DF09DF9C4F82C0700F0A9F9E9E617
:10958000022004F0ADFFFDE60990CDE90A00B4F831
:109590000E37049AADF82630012509A923208DF84D
:1095A0002450FFF787FC00287FF4D3AECDE90900F3
:1095B00094F81C77B4F810370B90049A8DF8245067
:1095C00009A920208DF82670ADF82830FFF772FC2D
:1095D00000287FF4BEAE0990CDE90A0094F8123756
:1095E000049A8DF8245009A922208DF82630FFF71F
:1095F00061FC00287FF4ADAECDE9090094F8133783
:109600000B90049A8DF8245009A921208DF826305A
:10961000FFF750FC00283FF4FEAE9AE604F110007C
:10962000FEF746F872E700BF58FA0300C58E020045
:1096300000700240006000203CFA030050FA030072
:10964000658F020054FA0300D18E020000E100E0B1
:10965000C98E020000B5084B85B01B7D01910846FC
:109660008DF80C3013F0E9FE019982B203A8FFF7E0
:109670001BFC05B05DF804FB58FA030000B583B08D
:1096800008460DF10601ADF80620FFF70FFC20B9E2
:109690009DF8060003B05DF804FB002003B05DF800
:1096A00004FB00BF90F91E07704700BF70B5044669
:1096B00082B0D0F82C070D460DF07CF94FF47A7289
:1096C00006460023A90DA80212F08AFD00230246D7
:1096D0000421D4F82C0700930DF040F90EB102B02C
:1096E00070BD0096D4F82C073346324603210DF0A6
:1096F00035F902B070BD00BF01290CBFB0F80E07EC
:10970000B0F81407704700BF13299ABF00EB81011E
:10971000D1F834070020704710B5064C0021D4F86A
:1097200028070BF015FCD4F824070021BDE81040F1
:109730000BF00EBC8463002090F8303703B97047FB
:1097400010B582B0D0F82C470CF098FA00230246EE
:109750000093204601210DF001F902B010BD00BFB9
:10976000F0B583B0002405462346D0F82C070094BA
:10977000224603210DF0F2F805F5E66605F5F067DF
:1097800056F8040F20B1FEF753F908B10134E4B2E2
:10979000BE42F5D195F8303743B1211E18BF0121E3
:1097A0000C2003B0BDE8F0400DF086BF03B0F0BD63
:1097B0000148FFF761BD00BF8463002000207047AF
:1097C000002201214270C0E901220170C281828120
:1097D000704700BF10B50446017001B110BD0A20EA
:1097E0000BF020F9606010BD037810B5044643B15A
:1097F000002301226370C4E90133E381A381227055
:1098000010BD40680BF0ACFEF2E700BF00238160A2
:109810008281C381704700BF037870B504460D464E
:10982000B3B94668012363704FF47A720023A8022B
:10983000A90D12F0D5FC014630460BF015FD98B984
:10984000237800264FF0FF356670A3B9284670BD17
:109850000322002101200BF0A3F8064660600028D7
:10986000E0D14FF0FF35F1E7E58923780026ADB26E
:109870006670002BEAD060680BF072FE66602846C6
:1098800070BD00BF4078704738B504468089824279
:1098900028BF0246154619B1A06812F0CBFEA08978
:1098A000E389A26815FA83F3401B9BB22A44A08186
:1098B000E381A260284638BD406820B100231A46E3
:1098C00019460BF0E1B87047B1DF7047B2DF70475F
:1098D00008B50F480AF0BAFD0E490D4805F09AF890
:1098E00028B10D490A4805F095F850B108BD09495D
:1098F000074805F0ABF80849054805F08BF8002843
:10990000F4D1BDE808400449014805F09FB800BF04
:109910004478002080FA030094FA030070B586B002
:109920000E4603230021054614460093044A04967C
:10993000084603AB039505940DF076FD06B070BDA7
:10994000099C020070B586B00323144606460D46F6
:109950000093104603AB044A05940721CDE9036543
:109960000DF062FD06B070BD399D020030B50A46AB
:1099700091B089795379039111790293D378094D84
:10998000094C019100939378527801280CBF294625
:10999000214604A813F0FCFC04A9044805F0AEF825
:1099A00011B030BDA8FA0300D8FA030044780020B3
:1099B0002DE9F043D1B00B78032B04AF0D460446DC
:1099C000904668D95A08022A5ED14F4A4F49504BF7
:1099D000DFF84891012818BF11460022381D05F014
:1099E00065FA4B4907F1680005F096F907F1CC06D6
:1099F00011E00246414607F1680005F07FFA08F1E0
:109A0000380229464846FEF7FFFD044678BB07F1B9
:109A1000680005F0E9FA0022391D304605F016FB12
:109A200007F1D0000DC8D7F8DC10D7F8E4407B6709
:109A3000D7F8E83097F8E0C0F8663A67B96741228E
:109A400007F1EC0107F18800C7E9204387F87CC0E3
:109A500012F0F0FD07F1680005F0F2FA044607F194
:109A6000680044B105F0F8F85028D0D1C1E707F1FB
:109A7000680005F0B9FA381D05F0B6FA204607F57A
:109A80009A77BD46BDE8F0830024204607F59A7713
:109A9000BD46BDE8F083E9468CB08979AB786A7839
:109AA000039169790291297901911A4E1A49E8784E
:109AB000009004AD012C08BF3146284607F1CC06C2
:109AC00013F066FC1249304605F026F92946304667
:109AD000002205F0CFF9044650B90024304605F0C5
:109AE00083FA2046CD4607F59A77BD46BDE8F08358
:109AF000304605F0B1F8021EEFDD92B24146304625
:109B000005F0FCF9EAE700BF94FA030080FA0300CD
:109B100044780020A8FA0300D8FA0300A4630020C8
:109B2000F0B5ADB095799378344E144652780395DC
:109B30006579029594F804C0CDF804C0304DE478FE
:109B4000009404AF0C4601280CBF3146294607F1AA
:109B50000C0013F01DFC2B4B07F10C0107F13C002E
:109B6000002205F0A3F907F13C0005F069FA40B9BD
:109B7000002407F13C0005F037FA2046A437BD4623
:109B8000F0BD07F13C0005F067F8051E08DD07F1A0
:109B90003C0005F0F1F9291807F13C0005F0CEF979
:109BA00007F13C0005F058F8051E08DD07F13C0000
:109BB00005F0E2F9291807F13C0005F0BFF907F1BB
:109BC0003C0005F049F80028D2DDC31D23F007034F
:109BD0006D46ADEB030D82B204A907F13C00C7E965
:109BE000001205F08BF92046D7E900120323FFF796
:109BF0006BFEB0FA80F46409AD46BAE7A8FA030038
:109C0000D8FA030044780020F0B5B5B092F84E5071
:109C100092F84A30434E144692F84920039594F83E
:109C20004D50029594F84C50019594F84B50009586
:109C30000D463D4904AF012818BF314607F12C00FD
:109C400013F0A6FB394807F12C0104F0E3FE6E4641
:109C500000284AD1354B07F12C0107F15C000122A5
:109C600005F024F907F15C0005F0EAF918B9C437EA
:109C7000B546BD46F0BD502107F15C0005F01AF86D
:109C80005022214607F15C0004F052FF00232946D0
:109C900027487B61C7E90333C7E90633C7E90833BF
:109CA000BB62FFF731FD07F10C012022FDF7CEFF6B
:109CB0003B7B03B307F10C0013F0BFFB013082B212
:109CC000C1B207F15C007A6004F0F4FF7A6807F132
:109CD0000C0107F15C0004F02BFF07F15C0005F0BC
:109CE00083F9C437B546BD46F0BD07F12C010F48D6
:109CF00004F004FFAEE794F8491094F84D3094F85E
:109D00004E20039194F84A10029194F84B1001915F
:109D100094F84C10009107F10C00064913F038FB41
:109D2000C8E700BFD8FA0300A8FA0300447800206F
:109D30008463002008FB03002DE9F043ADB00C461E
:109D400004AF0021032306461546204607F10A0208
:109D50007981FFF7BBFD7B89E84623B9A437C54667
:109D6000BD46BDE8F0830733DB08A8EBC3039D467F
:109D70000DF11009204607F10A0249460323FFF7B7
:109D8000A5FD04460028E9D1A979AB786A7803914A
:109D900069790291297901913D483E49ED78009514
:109DA000012E08BF014607F10C0013F0F1FA3A4BFF
:109DB00007F10C0107F13C00012205F077F807F1EB
:109DC0003C0005F03DF90028C8D0214607F13C00D1
:109DD00005F0B4F807F13C0004F03EFF041E08DD76
:109DE00007F13C0005F0C8F8211807F13C0005F028
:109DF000A5F807F13C0004F02FFF041E08DD07F171
:109E00003C0005F0B9F8211807F13C0005F096F880
:109E100007F13C0004F020FF7C8980B2A04213D0FF
:109E2000E1B207F13C0004F045FF2246494607F144
:109E30003C0004F07DFE07F13C0005F0D5F8A437A6
:109E4000C546BD46BDE8F083E31D6D46DB08A5EBC6
:109E5000C3039D4604A9224607F13C00796005F042
:109E60004DF879687A89484612F0D6FB08B9AD46B4
:109E7000E1E707F13C0005F09BF87B89DB4319180B
:109E800007F13C0005F05AF8AD467C89C8E700BFF1
:109E9000A8FA0300D8FA03004478002038B590F8F7
:109EA000E8500DB1284638BD012380F8E83004465B
:109EB0000FF0DCF90028F5D12046BDE8384000F06D
:109EC000ADB800BF10B5044C204600F0A3F8002345
:109ED00084F8E83010BD00BF106B002003680A68EA
:109EE0009A4201D00020704770B5044684B04FF408
:109EF00053700D460AF0D2FC0646B0B10C4800F093
:109F0000ABF823460435002153F8042B0095CDE926
:109F1000016108490FF044F8044630460AF0D8FCC5
:109F2000B4FA84F0400904B070BD002004B070BDE4
:109F3000106B00207D7D0300F0B585B006464FF420
:109F400053700D46174603930AF0A8FC78B10446F7
:109F500000903A46281D311D03AB0FF09FF80546CF
:109F600020460AF0B5FC15B9039805B0F0BD0020F5
:109F700005B0F0BD00220260704700BF10B5044676
:109F800008460FF0FDF82060003818BF012010BD12
:109F900000220260704700BF10B5044608460FF06B
:109FA000EFF82060003818BF012010BD00230360C7
:109FB000704700BF00B583B00430019201AB0A4680
:109FC00004210EF067FF18B9019803B05DF804FB97
:109FD000002003B05DF804FBF0B5044683B04FF4F5
:109FE00063700E4617460AF059FC054678B1019099
:109FF00054F8040B00943A46314601230EF086FED5
:10A00000044628460AF064FCB4FA84F0400903B020
:10A01000F0BD00BF002280F8E420704770B590F8D2
:10A02000E4400CB1204670BD012380F8E4300546C1
:10A030004FF4BF500AF032FC06460028F2D03146F9
:10A0400028460EF087F80446B4FA84F430466409D2
:10A050000AF03EFC204670BD704700BF0146014833
:10A0600000F056BA1C6C002038B500F097F940B1EA
:10A07000002405462046013400F0C8FDE0B28542C8
:10A08000F9D838BD70B592B01D460C46164601A8E9
:10A090004222002112F0F6FA412D5CD9631C022203
:10A0A000DBB28DF806408DF80E408DF8264040F664
:10A0B000083540F202248DF81E308DF827308DF8D7
:10A0C0003130ADF804508DF807208DF812208DF84E
:10A0D00033208DF83B20ADF80840204A069240F22C
:10A0E000012505232424ADF810508DF815308DF886
:10A0F000164004231A4C8DF81F30012540F22462CB
:10A100008DF81C508DF830300894ADF82420154D92
:10A110000A9508234FF411640A228DF82C30ADF80B
:10A120002E4040238DF834200F4C8DF83C3001A98F
:10A13000304640F2075540F209464222ADF80C6025
:10A14000ADF838508DF84330CDF83F4012F072FA38
:10A15000422012B070BD002012B070BD2001052455
:10A16000240202050705800307058002007EFF2800
:10A170000AD010B500F0F8FC044608B1204610BD26
:10A180000DF072F8204610BD00207047007EFF28B9
:10A190000ED000B583B00DF1070100F02DFD20B108
:10A1A0009DF8070003B05DF804FB4FF0FF30F9E7BE
:10A1B0004FF0FF30704700BF007EFF280FD000B582
:10A1C00083B001220DF1070100F0DAFC20B19DF807
:10A1D000070003B05DF804FB4FF0FF30F9E74FF0E4
:10A1E000FF307047007EFF2801D000F00FBD7047A0
:10A1F000007EFF2801D000F069BD0020704700BF3D
:10A20000F8B50646007EFF281CD017465AB10D4609
:10A21000144600F083FC2946224680B1307E00F0CF
:10A2200039FD241A01D13846F8BD05440DF01CF85B
:10A23000307E00F073FC294622460028EED13F1BF9
:10A240003846F1E70020F8BD70B50368184A5B682E
:10A2500082B093428DF8071021D10546007EFF2879
:10A2600023D000F05BFC0DF10706012431462246A5
:10A2700088B1287E00F00EFD241A02D1012002B020
:10A2800070BD06440CF0F0FF287E00F047FC31461C
:10A2900022460028EDD1C4F1010002B070BD0122B8
:10A2A0000DF10701984702B070BD002002B070BDEB
:10A2B00001A2020070B592B01D460C46164601A8D8
:10A2C0004222002112F0DEF9412D5CD9631C0222EA
:10A2D000DBB28DF806408DF80E408DF8264040F632
:10A2E000083540F202248DF81E308DF827308DF8A5
:10A2F0003130ADF804508DF807208DF812208DF81C
:10A3000033208DF83B20ADF80840204A069240F2F9
:10A31000012505232424ADF810508DF815308DF853
:10A32000164004231A4C8DF81F30012540F2246298
:10A330008DF81C508DF830300894ADF82420154D60
:10A340000A9508234FF411640A228DF82C30ADF8D9
:10A350002E4040238DF834200F4C8DF83C3001A95D
:10A36000304640F2075540F209464222ADF80C60F3
:10A37000ADF838508DF84330CDF83F4012F05AF91F
:10A38000422012B070BD002012B070BD2001052423
:10A39000240202050705800307058002014B187897
:10A3A000704700BF186C0020037EFF2B02D1074BC3
:10A3B0001A7802B17047064902764161012200F124
:10A3C000100104481A7000F043B800BF186C002058
:10A3D00028FB03001C6C0020007EFF280ED000B577
:10A3E00083B000F09BFB10B103B05DF804FB01905B
:10A3F0000CF03AFF019803B05DF804FB00207047B1
:10A4000001B900B1704700B583B0694600F09CFB0C
:10A41000009BB3F5966F02D003B05DF804FB00F02B
:10A4200029FBF9E730B4084B084AFF2002F1080580
:10A430004FF47A740021303218761D609C601A61E6
:10A4400030BC596059617047FC6B002038FB030039
:10A45000F8B50546B0F818016C69B5F81A310A6804
:10A460000E4604441B1A176895F81C119BB222462D
:10A470003046B84750B3221894423CD2766806E082
:10A48000052B25D023780BB31C44A24233D9637823
:10A49000042BF5D1E378002BF4D195F81C11013190
:10A4A00085F81C11002EEDD095F840110729E9D848
:10A4B00001F1480745F82760217295F840110131F4
:10A4C00085F840111E462378002BDDD10020F8BD11
:10A4D00094F90230002B08DB95F81E31591C85F8E1
:10A4E0001E11A1780B43A370CCE795F81D31591CC0
:10A4F00085F81D11F5E7B5F818216B69104480B295
:10A50000A5F81801588095F81C211A710120F8BD92
:10A510002DE9F043284DDFF8B090AC46044688465C
:10A52000BCE80F0089B003AF0FC703AE0FCE05F133
:10A53000140E25460FC59EE80700DCF800303B806E
:10A540006B4636682E8003C36B4603CB1B4EA0615F
:10A5500004F118034FF4807C0125E16184F8202088
:10A56000636140F2EF2200231548C4F8189140F2CD
:10A5700009470421A4F81CC1C4F8280184F840113B
:10A58000A280C4F82C31C4F83031C4F83431C4F896
:10A590003831C4F83C314FF4E131C4E94876094818
:10A5A00084F81E51A571FFF7FFFE404600F050FAF7
:10A5B000284609B0BDE8F08388FB03006CFB03006C
:10A5C0003CFA0300FC6B0020090000012DE9F04F6C
:10A5D00004468BB0002900F09180032900F09C8094
:10A5E00090F840318B4240F2CB80483100F5A275A3
:10A5F00050F821603278002A00F0E78000231946E5
:10A60000374603E00131725C7718CAB102F14000AD
:10A61000C0B20128F6D9F42AF4D8100618D40120C3
:10A62000A2F55847B7F5006FECD30144202B00F09A
:10A63000C98025F81320725C01337718002AE5D110
:10A64000DBB201335B0043F4407304F5A17C5DE0B1
:10A6500002F0E000C02800F0A18002F0F000E02845
:10A6600000F0918002F0F800F028CBD102F0070250
:10A670004FF0040E787800F0C00CBCF1800FC1D10F
:10A6800097F802C00CF0C00800F03F00B8F1800F4E
:10A6900040EA8212B6D10CF03F0CBEF1030F4CEA37
:10A6A000821275D0F87800F0C007802FAAD100F090
:10A6B0003F0040EA8212A2F58030B0F5801F38BF1B
:10A6C0004FF0040E9ED2A2F55840B0F5006F99D31A
:10A6D000B2F5803F7144A9D31E2BB1DCA2F58032C4
:10A6E0005800970A2844C2F30902A7F52057A2F59B
:10A6F000105225F813704280023384E7D0F82031DD
:10A70000A0F8443100F5A17C4FF44173A4F8423124
:10A7100060460BB0BDE8F08F02A800F0ADF904F57B
:10A72000A17C019020B300F1FF3B5FFA8BF3284F2F
:10A7300004F1040B0DF1080A0BEB830BA64606AEE1
:10A7400097E80F001AF8018B86E80F0008F00F0950
:10A750000AADA94405EB181819F8109C18F8103C1C
:10A76000AEF84691AEF844310EF1040EDE45E7D165
:10A77000019B5B00DBB201335B0043F44073C5E730
:10A780004FF0000CC4E702F00F024FF0030E71E728
:10A79000A2F50060B0F5784F95D333E7787800F0F4
:10A7A000C007802F02F01F027FF42CAF00F03F00A3
:10A7B00040EA8212A2F18000B0F5F06FBFF422AF40
:10A7C00002202DE740F242333FE740F202333CE7FC
:10A7D00074FB0300004870471C6C0020014B586953
:10A7E000704700BF1C6C00200A4601460148FFF775
:10A7F000EDBE00BF1C6C0020024B186800B1006960
:10A80000704700BFA06D002030B40848BDF8085064
:10A81000046844B1646934B10846A44611461A4636
:10A820002B4630BC6047002030BC7047A06D002034
:10A8300030B40848BDF80850046844B1A46934B184
:10A840000846A44611461A462B4630BC604730BC29
:10A85000704700BFA06D0020024B186808B190F847
:10A8600050007047A46D00202DE9F047244C256866
:10A87000002D42D01F4600EBC00305EB83030446C6
:10A88000D3F818A089469046C600BAF1000F30D020
:10A89000504612F0D2FD0828024628BF0822344450
:10A8A00005EB8405D5E90764DFF85CC0154B002E85
:10A8B00008BF664651464846002C08BF1C4611F0AA
:10A8C000B9FE304612F0B9FD10280246314628BFC5
:10A8D0001022404611F0AEFE204612F0AEFD0428D4
:10A8E00002462146384628BF0422BDE8F04711F051
:10A8F000A1BEDFF818A00822D1E7BDE8F08700BFAD
:10A90000A46D0020C4FB0300B4FB0300A8FB0300FC
:10A91000F8B50B4F3B688BB100EBC00503EB850529
:10A9200004466A69C6001AB190473B6885F82A0058
:10A93000344403EB840393F82A00F8BD1846F8BDAD
:10A94000A46D0020074B1B685BB100EBC00003EB5C
:10A95000800010B4038D446A0C605DF8044B1380D2
:10A9600070477047A46D00200A781E2A01D100208C
:10A97000704710B520221C460521002300F078FF07
:10A98000204610BD30B4094C029A256855B10446E2
:10A9900004EBC40405EB840408461946A3680BB114
:10A9A00030BC18474FF0FF3030BC7047A46D00201A
:10A9B00030B4094C029A256855B1044604EBC4042E
:10A9C00005EB840408461946E3680BB130BC184710
:10A9D0004FF0FF3030BC7047A46D0020054B1B6862
:10A9E00033B100EBC00003EB8000036903B11847EB
:10A9F000704700BFA46D002000B5104B402283B00B
:10AA000083F8272303F030FF4FF080430024D3F86E
:10AA100038548DF8004068460CF080FA084B0193DA
:10AA200001A80CF0CBFA0CF0D5FAEB0702D401F038
:10AA300009FFFCE7204603F053FDF8E700E100E0E2
:10AA400045AA020003F04CBD002003F029BA00BF64
:10AA500000B5002383B00322CDE900230349044855
:10AA6000C8220AF01BFF03B05DF804FBC8FB03001B
:10AA7000F9A902000CF094BD4FF08052536E1BBA3E
:10AA80000360136E1BBA436008207047004870478C
:10AA9000D0FB030070B51F4D2B68B3B199B9147882
:10AAA000C4F34114012C0BD0022C07D15478012C93
:10AAB0000DD0022C07D19388072B21D0084670BDFA
:10AAC000517822290CD0012070BD184670BDDC6978
:10AAD000F4B1237811462246BDE8704002F070BE02
:10AAE0005188003918BF01211976114602F04EFE37
:10AAF0002A68136A002BE6D0107E9847204670BD66
:10AB0000054C114623892246BDE8704002F058BE2C
:10AB1000204670BDA86D00200460002010B50446DA
:10AB200001F0ECFD08B9002010BD01F0EFFD002898
:10AB3000F9D104484FF45A7303FB0400007900F084
:10AB4000010010BDAC6D0020064B4FF45A7202FBA1
:10AB5000003050F8063F0B60838882798A718B80C1
:10AB6000704700BFAC6D002008B5044B4FF45A721B
:10AB700002FB0030103001F025FC08BDAC6D002058
:10AB80002DE9F0414FF45A7505FB00F5194F05F119
:10AB900010043C4492B2204601F040FC0646204698
:10ABA00001F02AFC3F2802D83046BDE8F08107EBCF
:10ABB0000508002098F8031002F01EFD0028F3D0CD
:10ABC000204601F019FC3F280BD905F53A7298F898
:10ABD00003103A444023002002F072FD3046BDE8E5
:10ABE000F08198F80310002002F03EFD3046BDE8E9
:10ABF000F08100BFAC6D0020034B4FF45A7202FB92
:10AC00000030103001F07CBCAC6D00202DE9F0412B
:10AC1000044601F073FD10B90020BDE8F08101F099
:10AC200075FD06460028F7D14FF45A71DFF86080B1
:10AC300001FB04F404F12C054544284601F0C2FB55
:10AC40000028E9D008EB04073046B97802F0D4FCBC
:10AC50000028E1D004F54A744444284621464022A5
:10AC600001F0DCFB054660B1B978224630462B4640
:10AC700002F026FD40B9054B1B68DB07CCD500BEB2
:10AC8000CBE7B97802F0F0FC2846C6E7F0ED00E02B
:10AC9000AC6D002038B50C4B4FF45A7404FB0034F3
:10ACA0002C3492B20546204601F06AFC0346204649
:10ACB0001C4601F087FB3F2801D8204638BD2846B6
:10ACC000FFF7A4FF204638BDAC6D002008B5044B4B
:10ACD0004FF45A7202FB00302C3001F08DFB08BD9E
:10ACE000AC6D0020F0B51C4C83B000214FF45A72BB
:10ACF000204601250E4611F0C5FCFF234FF44242C9
:10AD000004F148016371E2802B460827009604F1A4
:10AD100010004FF4807227732581668101F016FBC5
:10AD20002B464FF4807204F5A471009504F12C00B9
:10AD300001F00CFB04F5127128460AF055F804F5F1
:10AD4000267103462846C4E909630AF04DF8C4E9B0
:10AD5000100603B0F0BD00BFAC6D002010B5094B6C
:10AD6000002203F12C0403F110001A601A7101F0A3
:10AD70007DFC204601F07AFC20460121BDE8104010
:10AD800001F09CBCAC6D00202DE9F0414B79022B09
:10AD900082B002D18B79022B04D00025284602B064
:10ADA000BDE8F081314FBB782BB1314B1B68DB071D
:10ADB000F3D500BEF1E78B783B700C780C44064667
:10ADC000617824294FF009050BD1082A02D80FE039
:10ADD000AA420DD323781C442B44617824299DB2C8
:10ADE000F6D005291BD0042902D163790A2B28D07B
:10ADF000204801F001FB3F28D0D9F978002002F06B
:10AE0000FBFB0028CAD01B4801F0F6FA3F28F9786E
:10AE100013D9194A4023002002F052FCBEE7214614
:10AE2000304602F0C9FB0028BFD0A3787B7023789E
:10AE30001C442B4461789DB2D5E7002002F014FC3D
:10AE4000ACE70E4A94F8008001920223013200928E
:10AE5000304604EB08011A4602F03AFB0028A4D061
:10AE600005F10E0318FA83F39DB2C1E7AC6D002023
:10AE7000F0ED00E0BC6D002094700020AE6D00206D
:10AE800038B5137803F06003202B0CD1264C93883F
:10AE900025789D4207D15378203B032B03D8DFE868
:10AEA00003F009151E04002038BD71B3022931D00A
:10AEB000012038BD61B10229FAD11C4B002BF7D01B
:10AEC0001B490020AFF30080012038BD0029EFD1DD
:10AED00011460723164A02F073FC012038BDA1B1C8
:10AEE0000229E5D15588257105F00104114884F047
:10AEF000010101F0E3FB104B002BD9D0C5F3400258
:10AF000021460020FFF77CFAD2E7114602F03EFC12
:10AF1000012038BD094B002BCAD051880020AFF367
:10AF20000080012038BD00BFAC6D00200000000093
:10AF3000B26D0020D86D002001A4020000000000C6
:10AF40002DE9F047574DEA788A420C4607461E46DF
:10AF50005CD19AB205F53A7105F1100001F010FBD1
:10AF6000514BD3B16B79FF2B17D0B6B105F2E7285F
:10AF700008EB060AA8F2D72902E0D0450DD06B797C
:10AF800018F8012F9A42F8D1484601F02BFA002810
:10AF9000F3D16979AFF30080EFE7444B23B1444824
:10AFA00001F020FA002870D0414801F025FA3F282E
:10AFB00005D9E978002002F01FFB002858D1AB78B2
:10AFC0009C4203D001242046BDE8F087394B13B1E1
:10AFD0000020AFF3008001F091FB20BB364801F068
:10AFE000F1F90028EED1002EECD016F03F06E9D1A1
:10AFF000A978384602F000FB04460028E2D0A97880
:10B0000038463346324602F05BFBDCE7AB788B42D6
:10B01000DCD02A4B1C6814F00104D4D000BE0024FC
:10B020002046BDE8F08701F071FB04460028D5D129
:10B03000214801F0C7F90028D0D0A978204602F0B5
:10B04000DBFA0028CAD01E494022A1F53F7001F06A
:10B05000E5F9034608B31A4AA978204602F030FB06
:10B060000028AFD1154B1B68DB07B7D500BEB5E78D
:10B070000F4801F0C1F93F280AD94023114AE97865
:10B08000002002F01DFBAB789AE7AFF300808BE75E
:10B09000E978002002F0E8FA91E7A97802F0E4FAF2
:10B0A0009CE700BFAC6D0020000000000000000025
:10B0B000BC6D002000000000D86D0020F0ED00E025
:10B0C000D47000209470002002488C22002111F0DE
:10B0D000D9BA00BF1471002002488C22002111F05F
:10B0E000D1BA00BF147100202DE9F0414B79032B38
:10B0F00082B011D10F79C7EBC7051235ADB29542B9
:10B100000C4604D8DFF89C8098F8011049B1234B15
:10B110001B68DA0700D500BE0025284602B0BDE84E
:10B12000F08194F800C004EB0C0292F801E0BEF14B
:10B13000210FECD1C8F8882014F80C1008F1010E8A
:10B1400008F1020C1144CDE900CE3A46064602F061
:10B15000BFF90028DBD0A37998F80210012B04BFB7
:10B16000E37988F803300122D8F8883088F8042081
:10B17000A278B3F8073088F80020A8F80630002934
:10B18000CBD0074A3046402302F09AFA0028C4D1B7
:10B19000024B1B68DB07C0D500BEBEE7F0ED00E048
:10B1A0005C71002014710020F0B51446127802F092
:10B1B0001F05012D83B00FD10B467149A78891F867
:10B1C00000C0FFB2BC4507D112F06002064606D1AE
:10B1D00083BB6278062A30D0002003B0F0BD202A5D
:10B1E000FAD16278013A0A2AF6D801A050F822F082
:10B1F000C5B20200B1B202009DB20200D9B1020094
:10B20000D9B10200D9B10200D9B10200D9B102000E
:10B2100085B202005FB202001DB2020063B3022BCE
:10B2200008D16388574ADBB20B711AB11946002066
:10B23000AFF30080012003B0F0BD6288120A212A1A
:10B2400065D0222AC8D11846FFF7D6FA4C490246E3
:10B25000CB883046214602F0B3FA2846BDE7002BE2
:10B26000E8D162884848120A4A7128B11146184646
:10B27000AFF300800028AFD02146304602F086FAB6
:10B280000120AAE7002B4ED1E388402BA4D83F4AE7
:10B290002146304602F094FA01209EE7002BC9D1E6
:10B2A0003B4A21463046012302F08AFA012094E706
:10B2B000002BBFD1374A21463046012302F080FAE5
:10B2C00001208AE7002BB5D1E5886088402D4FEA40
:10B2D00010222F4628BF402710F0FF003ED0012D3E
:10B2E00046D9013F08722C49BFB201250B46009791
:10B2F00001460020FFF788FA2B189BB28BBB274A28
:10B300001268D2077FF568AF00BE184665E7D1F82E
:10B310008820002A3FF460AF1378214603B0BDE8CF
:10B32000F04002F04DBA022B84D1E5886388402DAD
:10B330002C4628BF402413F0FF004FEA132205D00B
:10B34000012D03D991F84830834214D00F4B00945B
:10B3500001460020FFF76CFA01203EE710491D4628
:10B36000C4E70F4A2146304602F02AFA012034E7AA
:10B370000B491D46BAE7013C0A4BA4B2E7E700BF00
:10B380001471002000000000000000005C7100202B
:10B3900018710020197100201D710020F0ED00E0EF
:10B3A0001C7100205D71002030B51C4CA2788A42CF
:10B3B00083B00CD16178914217D1194A22B1194951
:10B3C000DAB20020AFF30080012003B030BD627814
:10B3D0008A42F2D0144B1B68DB0703D500BE002065
:10B3E00003B030BD002003B030BD00229BB2114637
:10B3F00005460093104604F14803FFF719FAA178B7
:10B400002846402304F1480202F05AF90028DBD113
:10B41000054B1B68DA07E5D500BED6E7147100209E
:10B42000000000001C710020F0ED00E070B500F19C
:10B430002C050446284600F0C5FF08B9002070BD61
:10B440006178002002F0D8F80028F7D004F50A76D9
:10B4500028463146402200F0E1FF054660B1034630
:10B4600061783246002002F02BF940B9054B1B6889
:10B47000DB07E3D500BE70BD617802F0F5F8284621
:10B4800070BD00BFF0ED00E030B5164C83B0002178
:10B490000D464FF41A72204611F0F4F804F14801F9
:10B4A00004F1100000950123802200F04FFF80225C
:10B4B00004F1C8010123009504F12C0000F046FFBF
:10B4C00004F5A471012009F08FFC04F5CC7103464A
:10B4D0000120C4E9095309F087FCC4E9100503B051
:10B4E00030BD00BFE892002010B5084C002304F1E5
:10B4F0001000C4E90033C4E9023301F0B7F804F1E5
:10B500002C00BDE8104001F0B1B800BFE892002067
:10B510002DE9F0434B79012B83B002D18B79012BBC
:10B5200004D00025284603B0BDE8F083CB79002B7A
:10B53000F7D10B78CC1806466578242D99B20BD13B
:10B54000914202D9EDE78A42EBD323781C440B44A5
:10B550006578242D99B2F6D0042DE2D16379012BC0
:10B56000DFD1A379032BDCD1E579002DD9D1DFF828
:10B57000CC8098F8010098F8023050EA030905D011
:10B580002B4B1B68DB07CCD500BECBE7A37888F834
:10B59000003027782079CB199DB2274430B922E0BA
:10B5A0003B7881451D44ADB21F441CD2AA421AD338
:10B5B0007B78052BF4D139463046019201F0FCFF2F
:10B5C000019A68B3BB782079D90914BF88F8013093
:10B5D00088F80230397809F101030D445FFA83F9E4
:10B5E000ADB20F44DCE7134800F006FF3F2899D9BD
:10B5F00098F80210002001F0FFFF002892D00D48BB
:10B6000000F0FAFE3F2898F8021005D90A4A4023B4
:10B61000002002F055F885E7002002F025F881E7C8
:10B62000034B1B68DA077FF57CAF00BE054679E760
:10B63000F0ED00E0F8920020D0940020E892002085
:10B6400000207047F8B52D4DAA788A421E4619D1C0
:10B650009AB205F5F47105F1100000F091FF284B46
:10B6600013B10020AFF30080264800F0C5FE3F284C
:10B6700005D9A978002001F0BFFF044668BB01246A
:10B680002046F8BD6B788B4208D01F4B1C6814F025
:10B690000104F5D000BE00242046F8BD0746284628
:10B6A000FFF7C4FE0028EAD105F12C0000F08AFE65
:10B6B0000028E4D1002EE2D016F03F06DFD16978F1
:10B6C000384601F099FF04460028D8D069783846FA
:10B6D0003346324601F0F4FFD2E70A4800F08CFE10
:10B6E0003F28A97805D9094A4023002001F0E8FF46
:10B6F000C6E7002001F0B8FFC2E700BFE8920020D3
:10B7000000000000F8920020F0ED00E0D09400204E
:10B7100070B52E4CE28AA36852BA92B282B0054646
:10B7200012B1B3FBF2F292B2A06BD4F81110B0FBDD
:10B73000F2F61B1AB3F5007F28BF4FF4007309BA65
:10B74000009302FB1602224B607B3144FFF71AF98B
:10B75000031E13DB09D094F82E101D4A9BB2284615
:10B7600001F0AEFF58B302B070BD94F82E100093F4
:10B7700028461A4601F078FE02B070BDA268A36B9D
:10B7800043F203300021D31AA08784F83E10012031
:10B790000221A36284F82C0084F83010002AE2D041
:10B7A000002BE0D0237BDB0914BF94F82E1094F813
:10B7B0002F10284602B0BDE8704001F0BDBF054B18
:10B7C0001B68DB07CFD500BECDE700BFA07300200C
:10B7D000A0710020F0ED00E038B5214B214C05466A
:10B7E0001BB1607BAFF30080B0B1A06BA36894F88D
:10B7F0002F101D4A1B1AB3F5007F28BF4FF40073AA
:10B8000028469BB201F05CFF00B138BD174B1B68A6
:10B81000DB07FAD500BE38BDA26BA16884F83E00F4
:10B820008B1A42F207720120A2870222A36284F8D7
:10B830002C0084F830200029E7D0002BE5D0237BB2
:10B84000DB0906D094F82E102846BDE8384001F0F8
:10B8500073BF94F82F102846BDE8384001F06CBF44
:10B8600000000000A0730020A0710020F0ED00E0B7
:10B87000044880F83C1080F83D2080F83E300120DC
:10B88000704700BFA073002002484022002110F042
:10B89000F9BE00BFA073002002484022002110F032
:10B8A000F1BE00BFA07300204B79082B01D000200F
:10B8B00070478B79062BFAD1CB79502BF7D1162A0A
:10B8C00006D81C4B1B68D907F1D500BE0020704775
:10B8D00070B5194D8B7885F82D300B7882B005F155
:10B8E0002F0205F12E0619440223CDE900261A463F
:10B8F000044601F0EDFD30B90E4A1268D2070FD5AB
:10B9000000BE02B070BD204695F82F1000241F2302
:10B910002A4685F8304001F0D3FE20B11720F0E729
:10B92000002002B070BD034B1B68DB07F6D500BEDC
:10B930001720E6E7F0ED00E0A0730020002961D1B8
:10B9400070B5137803F07F05022D84B0044620D033
:10B9500003F06003202B02D0002004B070BD5378A8
:10B96000FE2B34D0FF2BF7D15388002BF4D1D6888F
:10B97000B3B2002BF0D13B4D11462046AE87C5E94E
:10B980000D3385F8303085F83E3001F0FFFE0120A0
:10B99000E3E75578012DDBD15388002BDCD1314E04
:10B9A000938896F83020042ADBB243D096F82E1004
:10B9B000994229D096F82F509D4205D122B92946A7
:10B9C00001F0ACFE00283AD0012004B070BD5388CD
:10B9D000002BC1D1D0880128BED1234B8DF80F0098
:10B9E0002BB10192FEF738FF019A0028B4D0451E12
:10B9F0001146204601230DF10F028DF80F5001F082
:10BA0000DFFEE1E701207047022ADDD1B26BB368A7
:10BA10009B1A0324B36206F120020D2386F83040FE
:10BA200001F04EFE0028CFD1104B1B68DB0793D5E9
:10BA300000BE92E7194601F07FFE28468DE72946B1
:10BA4000204601F095FE0028BED1002386F8303054
:10BA500096F82F10034A20461F2301F031FE0028DC
:10BA6000B2D1E1E7A073002059A80200F0ED00E098
:10BA7000F0B5A74C94F83050012D8FB01E46074604
:10BA80006FD0032D46D02DB1022D00F0898001200A
:10BA90000FB0F0BD94F82F308B42F8D11F2E40F03C
:10BAA0009E809C4B22689A4240F09980E37B9A4AA0
:10BAB0006068A56284F82C50A5632262A568606264
:10BAC0000122282B84F83020656300F0DA802A2BCD
:10BAD00000F09F82002D00F02981227BD20940F0E6
:10BAE0002581B5F5007F40F2F78294F83C30A562DD
:10BAF0000120022284F82C0084F8302023B942F27D
:10BB0000050284F83E30A287384601F015FE94F80D
:10BB10003050B9E794F82E308B42B8D10D2EB6D103
:10BB2000E37B282B00F06D822A2B00F062827B4B96
:10BB300023B1607B04F10F01AFF30080002084F893
:10BB40003000734A94F82F101F23384601F0B8FDD7
:10BB50000028DCD1724B1B68DA0700F190800020CE
:10BB600096E7E37B282B12D02A2B59D0A36B227B9C
:10BB70003344D209A36347D0626B9A420DD9684B14
:10BB80001B68DB07C3D500BE94F830507CE7D4E9CE
:10BB90000D2333449342A3636CD3022384F83030E3
:10BBA00094F82E10384601F0E3FD00287FF46FAFC3
:10BBB000A368A26B934202D9217BC9091ED19B1AAB
:10BBC0000325A36294F82E10564A84F83050384664
:10BBD0000D2301F075FD00287FF459AFBAE7042367
:10BBE00094F82E1084F83030384601F0A5FD384620
:10BBF00094F82F1001F0A0FD002049E794F82E10D2
:10BC0000384601F099FD42E7A38E474A607B04F174
:10BC10000F01FEF7A9FE0028C0F2C981A36BABE7B4
:10BC2000E08A40BA80B218B1A368B3FBF0F080B2EA
:10BC3000D4F81110A26B3C4DB2FBF0F309BA00FB33
:10BC400013221944607B00962B46FEF7B1FE0028B4
:10BC5000C0F20A82864252D9002840F03382002383
:10BC600094F82F1000933246384601F0FDFB94F80B
:10BC7000305009E7FFF74CFD94F8305004E700BE60
:10BC800006E7E28A52BA92B29DB9002A85D094F8AA
:10BC90003C300222002184F82C2084F83020A1625C
:10BCA000002B7FF47DAF42F2050284F83E30A2877C
:10BCB00076E7207BC0090BD0002A00F0EE81954288
:10BCC000C0F02282282B3846D4D0FFF785FD1EE72E
:10BCD00094F83C20A562022384F82C3084F830309C
:10BCE000002A7FF411AF42F205020023A28784F8F4
:10BCF0003E30207BC00900283FF406AF9DE1D4E927
:10BD00000D2333449342A363BFF447AF3846DCE7C7
:10BD1000A073002055534243555342530000000086
:10BD2000F0ED00E0C0730020A0710020607B252BA7
:10BD300027D8DFE813F03701260026000A01260085
:10BD400026002600260026002600260026002600C3
:10BD500026002600260026002600E90026002600F0
:10BD600026002600260026002600CF00B50026006B
:10BD70002600260026002600260026007B0026003E
:10BD8000520094F83C30002B3AD1B04AB049ABB2E3
:10BD9000FEF7EAFD002833DB40F0C981A368002BE1
:10BDA0003FF4FBAEA16B94F83C205B1A012002210A
:10BDB000A36284F82C0084F8301022B942F2050105
:10BDC00084F83E20A187002B3FF4EAAE237BDB09F9
:10BDD00040F0338194F82F1096E604AA05A9FEF7E7
:10BDE000B1FD059B23B1BDF81020002A40F09681DB
:10BDF00094F83C3023B940F2024284F83E30A287E6
:10BE0000A268A36B94F83C100120D31A84F82C008C
:10BE10000220A36284F8300021B942F2050084F8C0
:10BE20003E10A087002A3FF4BBAECCE705AD00234F
:10BE30000DF10E0204A96B600593AB60FEF782FD65
:10BE4000049A002AD4D0BDF80E30002BD0D012BAFC
:10BE50005BBA08200221ADF81E3006928DF817005B
:10BE60008DF81C1095E80700784BA56883E807005B
:10BE70000C20002D40F03981A36B94F83C205B42EC
:10BE80000121A362022384F82C1084F83030002AA8
:10BE90007FF486AE42F2050384F83E50A3877FE626
:10BEA0006C4B002B3FF47AAFE17CC1F3400301F00F
:10BEB00001020909AFF3008000287FF46FAF94F806
:10BEC0003C30002B9CD140F202420023A28784F830
:10BED0003E3095E7059B604A03F4000343F00303FB
:10BEE0000593002A00F01881AFF300809DF816300A
:10BEF000564AA56880F0010060F3C7138DF816302C
:10BF0000059B13600420B4E74FF020330022CDE9F5
:10BF10000A33524D069207A909AA08930793099379
:10BF20000D930C9305AE0DAB0595FEF79DFC0FCE62
:10BF3000DFF818C1A568ACE80F000FCEACE80F0021
:10BF40003368CCF80030242093E794F83C2094F830
:10BF50003D0094F83E10DFF8F4C04FF0000E4FF0B3
:10BF60000003CDE905EECDE907EE62F303038DF89A
:10BF70001630F0220A23ADF824E08DF820008DF869
:10BF800021108DF814208DF81B3005AE0FCEACE8D3
:10BF90000F003368A4F83CE084F83EE0ACF80030D1
:10BFA000122066E7FEF7B4FC002888D0F6E6A26807
:10BFB000A36B94F83C0084F82C50D11A0225A1629E
:10BFC00084F8305020B942F2050584F83E00A58778
:10BFD000002A3FF4D1AD00293FF4CEAD237BDB092D
:10BFE00000F0948094F82E10384601F0A5FBA36B66
:10BFF000C2E51B4B002B3FF4A1AD607BFEF7EEFCCE
:10C000009CE5184B002B3FF499AD607BAFF30080AB
:10C0100094E5E28A52BA92B2002D3FF436AE207B0C
:10C02000C0093FF449AE94F83C30A562022284F87E
:10C030002C2084F83020002B7BD094F82E1038462A
:10C0400001F07AFB94F830501EE500BFA07100208B
:10C05000AF7300200000000000000000008002021A
:10C06000DDA9020000000000A36BA2683344D11ACE
:10C0700043F20330A3630023A08784F83E300120FD
:10C080000223A16284F82C0084F83030002A3FF4A7
:10C0900087AD00293FF484AD98E6012294F83C3046
:10C0A00084F82C200222A56284F83020002B7FF433
:10C0B00022AE42F2050284F83E30A287002D3FF402
:10C0C0006FAD16E6A36B361A03442918324628468C
:10C0D000A36310F0BDFAC2E5194AABB2384601F0CD
:10C0E000EFFA00287FF413AD34E5A84228BF2846B4
:10C0F00083B26063124A94F82E10384601F0E0FAD9
:10C1000000287FF404AD25E50222C7E794F82F103C
:10C11000384601F011FB81E50120E7E60849A568F2
:10C12000013B1BBA12BAC1E900320820A1E6A5689A
:10C130009FE642F2050284F83E30A287D9E500BFAF
:10C14000A071002030B5154C83B000210D464FF48E
:10C15000EE72204610F096FA04F13C01201D009585
:10C160000123402200F0F2F8402204F17C01012377
:10C17000009504F1200000F0E9F804F1BC01012071
:10C1800008F032FE04F5867103460120C4E9065327
:10C1900008F02AFEC4E90D0503B030BDE0730020AD
:10C1A00010B5064C2046002340F8043B00F05EFA30
:10C1B00004F12000BDE8104000F058BAE073002000
:10C1C0004B79FF2B01D0002070472DE9F041324C14
:10C1D0006678A378334382B003D0002002B0BDE874
:10C1E000F0810D788B782370804608790F460D44D6
:10C1F00008B36B78052B0AD0AB189D4202D306E03A
:10C20000AB4204D929780D4469780529F8D1234E29
:10C210000196731C0246009329460223404601F012
:10C2200057F90346A8B13B79A178C3EBC3031D447A
:10C2300031B96178A1B9E81B80B202B0BDE8F081E4
:10C24000402306F25B12404601F03AFA034600280A
:10C25000EFD1134A1268D207BFD500BE1846BDE71A
:10C26000002001F05BFA06460028E4D10D49402287
:10C27000A1F5BE7000F0D2F80028DCD0034661784A
:10C28000084A304601F01CFA0028D4D1044B1B6840
:10C29000DB07D0D500BECEE7E0730020E1730020BD
:10C2A000F0ED00E07C75002038B5234CA2788A427E
:10C2B0000AD063788B424FF0000004D101F02EFACF
:10C2C000054600B3012038BD9AB204F5AE71201DB9
:10C2D00000F056F9194B13B10020AFF30080A1789C
:10C2E000002001F01BFA05460028EBD1144800F0AD
:10C2F00083F83F28E6D9A178124A2846402301F066
:10C30000DFF9012038BD402204F5CE7104F1200090
:10C3100000F084F80028D5D003466178284604F55B
:10C32000CE7201F0CDF90028CCD1074B1B68DB079A
:10C33000C8D500BEC6E700BFE073002000000000C3
:10C34000E47300203C750020F0ED00E02DE9F041A1
:10C35000B2F5004F9DF8188030D804464069154664
:10C360000E461F4618B14FF0FF3108F07DFFA0695F
:10C3700018B14FF0FF3108F077FF6A0092B26069A0
:10C380002660511E00235242E381A580E78084F895
:10C390000880A1816281238218B11A46194608F0EB
:10C3A00073FBA06938B100231A46194608F06CFBEC
:10C3B0000120BDE8F0810120BDE8F0810020BDE84A
:10C3C000F08100BFC189028A89B292B28B1A914270
:10C3D0009BB202D242899B1A9BB28088984228BFA6
:10C3E00018467047C289038A90B29BB2C01AB0FA4D
:10C3F00080F04009704700BFC189028A89B292B2B9
:10C400008B1A914210B49BB2848802D240891B1AC5
:10C410009BB2E01A80B25DF8044B70472DE9F047FB
:10C42000054680698846914618B14FF0FF3108F003
:10C430001BFFEB892C8A9BB2A4B21E1BA342B6B28F
:10C4400002D26A89B61AB6B2AF88B74209D2BB42E5
:10C4500049D26A893A449B1A9AB22A822C8A3E4669
:10C46000A4B2002E45D04E4528BF4E46A74203D861
:10C47000E41BA4B2A742FBD9A7EB0409B5F806A0B8
:10C4800029681FFA89F94E450AFB041125D919FBC1
:10C490000AF91FFA89F94A46404610F0CBF8F21B18
:10C4A000224412FB0AF2296892B208EB090010F04C
:10C4B000C1F82A8A92B293199BB29A421BD96A890F
:10C4C00013449BB2A8692B8220B100231A46194657
:10C4D00008F0DAFA3046BDE8F0870AFB06F240467B
:10C4E00010F0A8F8E5E7A989DA1B92B29142B4D21C
:10C4F000AFE72B8A9BB2AA899A42E3D2DFE700BF5B
:10C5000070B5044680690E4618B14FF0FF3108F04F
:10C51000ABFEE289238A92B29BB2D01A9A4280B2D1
:10C5200002D26189401A80B2A588854207D2AA4208
:10C530001DD261892944521A91B221822846E0B164
:10C54000AB4203D35B1B9BB29D42FBD9E2882168BF
:10C55000304602FB031110F06DF80125A06920B1EF
:10C5600000231A46194608F08FFA284670BDA089A4
:10C57000511B89B28842E0D2DBE70546EEE700BFF7
:10C580002DE9F84F1546002A3FD0044640698846F9
:10C5900018B14FF0FF3108F067FEE789237A218A4E
:10C5A000BFB289B2A3BB7A1A8F42A38892B252D388
:10C5B0009A1A92B2954228BF1546A5EB0309B4F822
:10C5C00006A01FFA89F99F423E4603D3F61AB6B277
:10C5D0009E42FBD29B1B20689BB29D420AFB060039
:10C5E00027D80AFB05F2414610F024F8EB199BB25C
:10C5F0009F421AD8A2899A4217D36069E38120B179
:10C6000000231A46194608F03FFA2846BDE8F88F7D
:10C61000A3889D4223D3B4F806A0ED1A0AFB05882F
:10C620000F461D464FF00009CDE7628913449BB2C7
:10C63000E3E713FB0AF31FFA83FB5A4641464E44D5
:10C640000FF0F8FF16FB0AF2206808EB0B0192B21C
:10C650000FF0F0FFCAE76189521A92B2A8E7A5EB82
:10C660000309B4F806A01FFA89F9ACE710B504462F
:10C67000406918B14FF0FF3108F0F6FDA06918B11C
:10C680004FF0FF3108F0F0FDA38860695B009BB2BA
:10C69000591E5A420023E381A1816281238218B18D
:10C6A0001A46194608F0F0F9A06920B100231A468D
:10C6B000194608F0E9F9012010BD00BF38B504465D
:10C6C00040690D4618B14FF0FF3108F0CDFDA0696B
:10C6D00018B14FF0FF3108F0C7FD6069257220B135
:10C6E00000231A46194608F0CFF9A06920B10023AB
:10C6F0001A46194608F0C8F9012038BD024B58788F
:10C70000003818BF0120704714760020024B1878BB
:10C71000C0F38000704700BF14760020014B1878EA
:10C72000704700BF4B7600202DE9F0433A4D2E783C
:10C7300083B01EB1304603B0BDE8F08337223146E6
:10C74000044636480FF09EFF3549012008F04CFBA7
:10C75000344B186000283BD033490B464A6833F805
:10C76000080B4988009608F0EBF8304B186078B356
:10C770002F4F27B12F48AFF300802F4B18602D4E5D
:10C78000337877B32D4FDFF8B0804FF000094B4579
:10C7900037D8A9EB0303DBB2042B39D803EB4303EF
:10C7A00007EBC3031B689847337809F101095FFA67
:10C7B00089F91A1D4A45EADA204601F06FF9204648
:10C7C00001F06EF9012630462E7003B0BDE8F0830B
:10C7D0001B4B1B68DB07ADD500BE304603B0BDE880
:10C7E000F083DFF8588001E0052F11D007EB4703F5
:10C7F000013758F833309847337804339F42F3DDDC
:10C80000DAE7D8F8003009EB490203EBC203C9E7C5
:10C8100000231B68FFDE00BF4B760020147600204B
:10C82000C47500204C760020B860002050760020AF
:10C8300000000000C0750020BC7500200CFC030047
:10C84000F0ED00E02DE9F04F8BB002F01BF800286E
:10C8500000F06F81BE4DDFF81893DFF818A3DFF802
:10C8600018B328684FF0FF3207A908F0A1FB002891
:10C8700000F05F819DF81D30013B072B00F2F28430
:10C88000DFE813F00001C900A300940088003F0016
:10C890000E000800089B002BE3D009989847E0E7BA
:10C8A0009DF82010AB4B01F07F0403EB440303EB36
:10C8B000D11393F825006FF3000083F8250093F857
:10C8C00025006FF3820083F82500002C00F03481EE
:10C8D000A14ADB7C32B1A14A12789342C0F01C819C
:10C8E0009B1ADBB2042B00F21F8103EB43030AEB1C
:10C8F000C3031C699DF82120099B9DF81C00A047DB
:10C90000AFE7DFF850829DF81C6098F8003043F0E4
:10C91000010388F8003098F825306FF3000388F899
:10C92000253098F825306FF3820388F8253098F881
:10C9300026306FF3000388F8263098F826306FF31E
:10C94000820388F82630002000F09EFF9DF82030FA
:10C9500003F06002602A0DD0402A00F0438103F00A
:10C960001F03012B00F09B81022B00F06D81002B37
:10C9700000F04781D9F80030DC0700D500BE9DF8F3
:10C980001C00002101F032FA9DF81C00802101F00A
:10C990002DFA66E76F4B1B78DA077FF562AF704BB5
:10C9A000002B3FF45EAFAFF300805AE7694B1A7873
:10C9B000D1077FF556AF6B4A002A3FF452AF187883
:10C9C000C0F3C000AFF300804BE7644C624F2278A5
:10C9D000002F00F0F480002614E0B31ADBB2042B21
:10C9E00000F2FD8003EB43030AEBC3035B691BB159
:10C9F0009DF81C00984722780136F6B2131DB34209
:10CA0000FFF62FAFB242E8D9DBF8003006EB460163
:10CA100003EBC103EAE7514C4F4F23789DF81C60AC
:10CA2000002F00F0BA800027BB4267D8FB1ADBB2A8
:10CA3000042B00F21F8403EB43030AEBC3035B6880
:10CA40003046984723780137FFB21A1DBA42EBDA15
:10CA5000372200213F480FF015FE434B4FF0FF32C5
:10CA60001A605A609A60DA601A615A619A61DA61F2
:10CA70001A8400F0FFFE3D4B002B3FF4F2AEAFF303
:10CA80000080EEE6354C344F23789DF81C60002F73
:10CA90005AD000279F4238D3FB1ADBB2042B00F296
:10CAA000E98303EB43030AEBC3035B683046984713
:10CAB00023780137FFB21A1DBA42EBDA254C372230
:10CAC000002120460FF0DEFD4FF0FF33C4F80330A5
:10CAD000C4F80730C4F80B30C4F80F30C4F8133072
